:03000000020CAE41
:0C0CAE00787FE4F6D8FD758143020CF558
:100D3A0043616C63756C61746F722000456E7465F3
:100D4A0072207468652076616C7565732000496E3F
:100D5A006176616C696420496E70757473005245DE
:100D6A0053554C54203A00202020202020202020B7
:050D7A002020202000F4
:100E6F0002390000023B0000023D0000023F00007B
:100DC300120E497BFF7A0D793A120DF17FC0120E94
:100DD300807BFF7A0D7946120DF17F207EA1120EE2
:0E0DE30037120E291209918F41120B5680F61D
:100E1600E4F538F53FF540F53BF53CF539F53AF59F
:030E26003DF53E59
:0A0E29007F01120E807F80020E8010
:040E33007F207E4E50
:100E3700E4FDFCC3ED9FEC9E50070DBD00010C8047
:010E4700F2B8
:010E48002287
:100E8000C2A08FB0D2A17FE87E03120E37C2A1228A
:100E5D00D2A08FB0D2A17FE87E03120E37C2A102BD
:020E6D000E373E
:100E49007F38120E807F0F120E807F01120E807F75
:040E590080020E8085
:100DF1008B098A0A890BAB09AA0AA90B12080060A0
:100E010013050BE50B7002050A14F9120800FF1215
:050E11000E5D80E222ED
:100C0B00E538B42B0EE53A253CF540E539353BF597
:100C1B003F8058E538B42D0FC3E53A953CF540E5D8
:100C2B0039953BF53F8044E538B42A0DAC3BAD3CE0
:100C3B00AE39AF3A1208198016E538B42F17E53CD8
:100C4B00453B6011AC3BAD3CAE39AF3A12082B8E35
:100C5B003F8F408016120E297BFF7A0D7958120DAB
:100C6B00F17F907E5F120E37120E16120E297BFF4C
:100C7B007A0D7968120DF17FC0120E80AE3FAF4036
:100C8B00EE3395E0FDFC120A747F607EEA120E379C
:100C9B007F80120E807BFF7A0D7971120DF17F80B0
:030CAB00020E80B6
:080A74008F0C8E0B8D0A8C091A
:100A7C00E4F50DF537AF0CAE0BAD0AAC09EC335009
:100A8C00217F2D120E5DAF0CAE0BAD0AAC09120816
:100A9C0061EF2401F50CE43EF50BE43DF50AE43C72
:100AAC00F509AF0CAE0BAD0AAC09EC4D4E4F700511
:100ABC007F30120E5DAF0CAE0BAD0AAC09EC4D4E97
:100ACC004F603AE47B0AFAF9F8AF0CAE0BAD0AAC06
:100ADC0009120D7FAF03AE0D050D74232EF8A6077A
:100AEC00AF0CAE0BAD0AAC09E47B0AFAF9F8120DA7
:100AFC007F8F0C8E0B8D0A8C09053780B81537E467
:100B0C00F50D85370ED3E5376480F8E50D648098D4
:100B1C005018AF0E74232FF8E62430FFAE0D740F6F
:100B2C002EF8A607050D150E80DBE4F50DD3E53781
:100B3C006480F8E50D648098500FAF0D740F2FF89A
:090B4C00E6FF120E5D050D80E4C8
:010B5500227D
:100B56008F08120E5DE508642F6011E508642A60AF
:100B66000BE508642D6005E508B42B2BE540453FF1
:100B76006015853F3985403AE4F53DF53EF53BF590
:100B86003CF53FF540800B853D39853E3AE4F53D21
:100B9600F53E8508388067E508B43D10853D3B8500
:100BA6003E3CE4F53DF53E120C0B8052E508B4637D
:100BB60005120E168048E508C394304041E508D377
:100BC6009439503AE53E453D7013AF08EF3395E052
:100BD600FEEF24D0F53EEE34FFF53D8021AE3DAF6D
:100BE6003E7C007D0A120819AD08ED3395E0FCED58
:100BF60024D0FDEC34FFCD2FF53EED3EF53D7FD004
:050C06007E07020E371D
:10099100C290D293D292D291209409120E33309404
:1009A100FD7F3722209509120E333095FD7F3822C5
:1009B100209609120E333096FD7F392220970912B5
:1009C1000E333097FD7F2F22C291D293D292D290D3
:1009D100209409120E333094FD7F342220950912A0
:1009E1000E333095FD7F3522209609120E33309655
:1009F100FD7F3622209709120E333097FD7F2A2280
:100A0100C292D293D291D290209409120E33309493
:100A1100FD7F3122209509120E333095FD7F322260
:100A2100209609120E333096FD7F3322209709124A
:100A31000E333097FD7F2D22C293D292D291D29064
:100A4100209409120E333094FD7F63222095091200
:100A51000E333095FD7F3022209609120E333096E9
:100A6100FD7F3D22309703020991120E333097FD2D
:030A71007F2B22B6
:100CBA00020DC3E493A3F8E493A34003F68001F280
:100CCA0008DFF48029E493A3F85407240CC8C3333B
:100CDA00C4540F4420C8834004F456800146F6DF0A
:100CEA00E4800B0102040810204080900E6FE47E1D
:100CFA00019360BCA3FF543F30E509541FFEE493FF
:100D0A00A360010ECF54C025E060A840B8E493A3C5
:100D1A00FAE493A3F8E493A3C8C582C8CAC583CAF0
:100D2A00F0A3C8C582C8CAC583CADFE9DEE780BEA8
:010E7F000072
:10080000BB010689828A83E0225002E722BBFE02F6
:09081000E32289828A83E4932229
:10081900EF8DF0A4A8F0CF8CF0A428CE8DF0A42EF3
:02082900FE22AD
:10082B00C2D5EC30E709B2D5E4C39DFDE49CFCEEE8
:10083B0030E715B2D5E4C39FFFE49EFE12086EC3EA
:10084B00E49DFDE49CFC800312086E30D507C3E4E5
:06085B009FFFE49EFE2257
:100D7F00C2D5E830E70FB2D5E4C39BFBE49AFAE49F
:100D8F0099F9E498F8EC30E717B2D5120DB51208BF
:100D9F00FFE4C39BFBE49AFAE499F9E498F8800323
:100DAF001208FF30D50DE4C39FFFE49EFEE49DFDC6
:040DBF00E49CFC2292
:0D086100CFF4CFCEF4CECDF4CDCCF4CC222C
:10086E00BC000BBE0029EF8DF084FFADF022E4CC6E
:10087E00F875F008EF2FFFEE33FEEC33FCEE9DEC37
:10088E00984005FCEE9DFE0FD5F0E9E4CEFD22ED7D
:10089E00F8F5F0EE8420D21CFEADF075F008EF2FC7
:1008AE00FFED33FD4007985006D5F0F222C398FDB8
:0508BE000FD5F0EA2255
:1008C30075F008758200EF2FFFEE33FECD33CDCCEC
:1008D30033CCC58233C5829BED9AEC99E58298406F
:1008E3000CF582EE9BFEED9AFDEC99FC0FD5F0D64C
:1008F300E4CEFBE4CDFAE4CCF9A88222B800C1B976
:100903000059BA002DEC8BF084CFCECDFCE5F0CBB3
:10091300F97818EF2FFFEE33FEED33FDEC33FCEBEC
:1009230033FB10D703994004EB99FB0FD8E5E4F9A7
:10093300FA227818EF2FFFEE33FEED33FDEC33FC94
:10094300C933C910D7059BE99A4007EC9BFCE99A88
:10095300F90FD8E0E4C9FAE4CCFB2275F010EF2FCD
:10096300FFEE33FEED33FDCC33CCC833C810D707CD
:100973009BEC9AE899400AED9BFDEC9AFCE899F808
:0E0983000FD5F0DAE4CDFBE4CCFAE4C8F9229B
:00000001FF
